:100000000C942A000C943F000C943F000C943F0089
:100010000C943F000C943F000C943F000C943F0064
:100020000C943F000C943F000C943F000C943F0054
:100030000C943F000C943F000C943F000C943F0044
:100040000C943F000C943F000C943F000C943F0034
:100050000C943F0011241FBECFE5D8E0DEBFCDBF1A
:1000600010E0A0E6B0E0E8EEFAE002C005900D92E4
:10007000A237B107D9F70E94C2000C9472050C9404
:10008000000092B39F7092BB92B3807F982B92BB7B
:10009000AF9A85E08A95F1F70000AF988FE891E07C
:1000A0000197F1F700C000000895CF93C82FAE98D4
:1000B0000E9441008C2F8295807F0E9441008FE337
:1000C0009FE10197F1F700C00000CF910895CF9311
:1000D000C82FAE9A0E9441008C2F8295807F0E948B
:1000E00041008FE39FE10197F1F700C00000CF913D
:1000F000089584B3806C84BB81B3806F81BB2FEF84
:1001000089EF90E0215080409040E1F700C000006E
:1001100082E00E94550088E20E9455008CE00E9417
:10012000550086E00E94550081E00E9455008FE155
:100130009EE40197F1F700C000000895CF93DF938C
:10014000EC018991811103C0DF91CF9108950E9444
:100150006700F7CF81E00E9455008FE39FE1019790
:10016000F1F700C00000089580E487B987E886B9F8
:10017000089587B1807F87B9369A3699FECF84B1CA
:1001800095B10895CDB7DEB760970FB6F894DEBF8E
:100190000FBECDBF0E9479000E94B4008E010F5F98
:1001A0001F4F89E6E82E80E0F82E0E94B900BC01BE
:1001B00080E090E00E94870120E030E040EA50E4D7
:1001C0000E94150220E030EC4FE754E40E94150134
:1001D000D62EC72EB82EA92E0E94AA0060E670E087
:1001E000C8010E948202C8010E949E00AF92BF9285
:1001F000CF92DF92FF92EF921F930F930E9489029A
:1002000080EC0E945500C8010E949E002FEF89E6F5
:1002100098E1215080409040E1F700C000000FB607
:10022000F894DEBF0FBECDBFC0CF0E9429010C9451
:10023000DB010E94D40158F00E94CD0140F029F466
:100240005F3F29F00C94C40151110C940F020C94DF
:10025000CA010E94EC0168F39923B1F3552391F38D
:10026000951B550BBB27AA2762177307840738F025
:100270009F5F5F4F220F331F441FAA1FA9F335D082
:100280000E2E3AF0E0E832D091505040E695001C36
:10029000CAF72BD0FE2F29D0660F771F881FBB1FF0
:1002A000261737074807AB07B0E809F0BB0B802DCE
:1002B000BF01FF2793585F4F3AF09E3F510578F0FA
:1002C0000C94C4010C940F025F3FE4F3983ED4F306
:1002D000869577956795B795F7959F5FC9F7880FCE
:1002E000911D9695879597F90895E1E0660F771F20
:1002F000881FBB1F621773078407BA0720F0621BB1
:10030000730B840BBA0BEE1F88F7E0950895E89401
:1003100009C097FB3EF490958095709561957F4F4D
:100320008F4F9F4F9923A9F0F92F96E9BB279395FB
:10033000F695879577956795B795F111F8CFFAF40B
:10034000BB0F11F460FF1BC06F5F7F4F8F4F9F4F3C
:1003500016C0882311F096E911C0772321F09EE89A
:10036000872F762F05C0662371F096E8862F70E000
:1003700060E02AF09A95660F771F881FDAF7880FDA
:100380009695879597F9089597F99F6780E870E0AB
:1003900060E008959FEF80EC089500240A941616FB
:1003A000170618060906089500240A941216130663
:1003B000140605060895092E0394000C11F48823F1
:1003C00052F0BB0F40F4BF2B11F460FF04C06F5F0D
:1003D0007F4F8F4F9F4F089557FD9058440F551FE3
:1003E00059F05F3F71F04795880F97FB991F61F0B7
:1003F0009F3F79F087950895121613061406551F2E
:10040000F2CF4695F1DF08C0161617061806991F99
:10041000F1CF86957105610508940895E894BB278E
:1004200066277727CB0197F908950E9428020C943C
:10043000DB010E94CD0138F00E94D40120F0952309
:1004400011F00C94C4010C94CA0111240C940F02F5
:100450000E94EC0170F3959FC1F3950F50E0551F7A
:10046000629FF001729FBB27F00DB11D639FAA2709
:10047000F00DB11DAA1F649F6627B00DA11D661F58
:10048000829F2227B00DA11D621F739FB00DA11D79
:10049000621F839FA00D611D221F749F3327A00D33
:1004A000611D231F849F600D211D822F762F6A2FCF
:1004B00011249F5750409AF0F1F088234AF0EE0F34
:1004C000FF1FBB1F661F771F881F91505040A9F761
:1004D0009E3F510580F00C94C4010C940F025F3FC5
:1004E000E4F3983ED4F3869577956795B795F7959D
:1004F000E7959F5FC1F7FE2B880F911D9695879515
:1005000097F90895FB01DC0101900D920020E1F7BD
:100510000895AEE0B0E0EFE8F2E00C9449050D89F3
:100520001E8986E08C831A8309838FEF9FE79E8361
:100530008D83AE01475E5F4F6F89788DCE01019646
:100540000E94AC022F813885020F131FF801108220
:100550002E96E4E00C946505ABE0B0E0E2EBF2E04F
:100560000C943E056C017B018A01FC011782168206
:10057000838181FFD9C19AE0592EF6012381F701C9
:1005800023FD859123FF81917F01811509F41FC10E
:10059000853239F423FD959123FF91917F019532A6
:1005A00029F4B60190E00E94AD04E7CF30E0912C31
:1005B000612C712CF0E27F1640F59B32D9F058F493
:1005C0009032D1F09332F1F09E3299F576FCFFC073
:1005D000689476F806C09D3291F09033C1F4689427
:1005E00070F8F70123FD959123FF91917F019111FF
:1005F000E1CF29C0689471F8689472F8F2CF6894DA
:1006000073F8EFCF689474F8ECCF77FC1CC080EDE2
:10061000890F8A30C8F676FE05C0959C800D11249E
:10062000982EDFCF659C800D1124682E689475F894
:10063000D8CF9C3619F4689477F8D3CF9C3409F45A
:100640004BC0983671F2892F8F7D8554833008F422
:1006500045C0933609F466C0933709F469C09335F1
:1006600009F475C0943619F0993609F09FC0F80165
:1006700077FE95C061917191819191918F01272DA4
:100680002F76822E97FF09C0909580957095619581
:100690007F4F8F4F9F4F689487F82AE030E0AE017C
:1006A0004F5F5F4F5A010E94DD048A19A82E86FE13
:1006B000C4C0882D8E7FA91408F0BEC084FE11C16D
:1006C00082FC05C1F82DFE7E8F2EB92C882D8678F0
:1006D000811509F4BFC000C131E083CF3115F9F0B5
:1006E000085F1F4F8FE3898388248394912CAE0188
:1006F0004F5F5F4F5A01E89477F873FC03C086148C
:100700009104B0F181149104D1F5611409F435CF4D
:10071000B60180E290E00E94AD046A94F6CF0C5FCF
:100720001F4FE0CFF801808189830E5F1F4FDCCF20
:10073000F801A190B1908F01692D70E076FC02C0A4
:100740006FEF7FEFC5010E94A2044C01D4CFF801E6
:10075000A190B1908F01692D70E076FC02C06FEF1F
:100760007FEFC5010E9497044C01689477F8C5CFCC
:10077000B60180E290E00E94AD046A94C0CFF5011A
:1007800077FC859177FE81915F01B60190E00E9430
:10079000AD0461106A94F1E08F1A9108B3CF6191B2
:1007A0007191072E000C880B990B68CF872CE89469
:1007B00084F82AE030E0953739F1572D597F852E9E
:1007C000903799F058F49835A9F09F36D9F0F60192
:1007D000868197812B96EFE00C945A059837B9F7EC
:1007E00074FC05C020E130E00FC0689484F8689480
:1007F00082F8F8CF74FE03C0872D8660882E20E132
:1008000032E002C028E030E0F80187FE10C06191BC
:100810007191819191918F01FE0131965F01AF013C
:100820000E94DD048A19A82EE89487F840CF6191D0
:10083000719180E090E0EFCF882EBA2C84FE46CFF5
:10084000FE01EA0DF11D8081803309F043C0282D9F
:10085000297E822E83FC0EC080FE4FC09A2CB614D7
:1008600018F4960C9B18B62C862D8B196B1408F473
:1008700080E0B80EB61408F042C06B1884FE41C088
:10088000B60180E390E00E94AD0482FE09C088E5D5
:1008900090E081FC02C088E790E0B6010E94AD04C0
:1008A000A914D8F1AA94B12C4FEFA41AB40ACE011E
:1008B00001964C01A80EB91EF50182915F01B601A7
:1008C00090E00E94AD048A149B04B1F71ECFB92CAE
:1008D000882EB6CF82FC02C0B394BCCFB394B3943D
:1008E000B9CFB92C882EF2CEB60180E290E00E94FA
:1008F000AD0473947614C0F3B7CF7B2CFBCF612C7F
:10090000BDCF882D8678811559F280E281FC8BE27B
:1009100087FC8DE2B60190E0C1CFB60180E390E0A4
:100920000E94AD049A94BCCF8FEF9FEF53CFFC0190
:100930000590615070400110D8F7809590958E0F0A
:100940009F1F0895FC016150704001900110D8F77D
:10095000809590958E0F9F1F08950F931F93CF93AF
:10096000DF93182F092FEB018B8181FD09C01FEF49
:100970000FEF812F902FDF91CF911F910F9108954D
:1009800082FF14C02E813F818C819D8128173907F9
:100990003CF4E881F981CF01019699838883108323
:1009A0008E819F8101969F838E83E3CFE885F985B1
:1009B000812F0995892BA1F3DACFFA01AA272830D4
:1009C00051F1203181F1E8946F936E7F6E5F7F4F1C
:1009D0008F4F9F4FAF4FB1E03ED0B4E03CD0670F98
:1009E000781F891F9A1FA11D680F791F8A1F911DEB
:1009F000A11D6A0F711D811D911DA11D20D009F43B
:100A000068943F912AE0269F11243019305D31937C
:100A1000DEF6CF010895462F4770405D4193B3E065
:100A20000FD0C9F7F6CF462F4F70405D4A3318F00C
:100A3000495D31FD4052419302D0A9F7EACFB4E0BD
:100A4000A6959795879577956795BA95C9F7009775
:100A50006105710508959B01AC010A2E0694579516
:100A6000479537952795BA95C9F7620F731F841F6D
:100A7000951FA01D08952F923F924F925F926F9203
:100A80007F928F929F92AF92BF92CF92DF92EF921E
:100A9000FF920F931F93CF93DF93CDB7DEB7CA1B9F
:100AA000DB0B0FB6F894DEBF0FBECDBF09942A88CA
:100AB000398848885F846E847D848C849B84AA8472
:100AC000B984C884DF80EE80FD800C811B81AA81FF
:100AD000B981CE0FD11D0FB6F894DEBF0FBECDBFCA
:080AE000ED010895F894FFCF29
:100AE800566F6C746167653A0025302E3266205661
:020AF8000000FC
:00000001FF
