:100000000C942A000C9434000C9434000C943400AA
:100010000C9434000C9434000C9434000C94340090
:100020000C9434000C9434000C9434000C94340080
:100030000C9434000C9434000C9434000C94340070
:100040000C9434000C9434000C9434000C94340060
:100050000C94340011241FBECFE5D8E0DEBFCDBF25
:100060000E947D000C94A4000C940000BB9A83B7FE
:10007000886483BF83B7806283BF83B7836083BF95
:100080001CBE08958D9A8FB580688FBD8FB5816035
:100090008FBD8EB588608EBD8EB583608EBD1BBC56
:1000A0001ABC08958CBF089590E09BBD8ABD089549
:1000B0003E9A379A86B1866086B9089587B1807F67
:1000C00087B9369A3699FECF84B195B10895B89A1A
:1000D000B99ABA9ABC9A889A899A8A9A8B9A0895F8
:1000E000C09AC198C29AC498909A9198929A9398FB
:1000F00008951CBE1BBC1ABC08950E9467000E9494
:1001000036000E9442000E94580014EBC4EBD0E07D
:100110000E945E00843F914088F40E9479000E9412
:100120005E00843F9140A0F78FE798E321E0815083
:1001300090402040E1F700C00000F1CF0E94700025
:0C0140001CBFDBBDCABDE4CFF894FFCFAC
:00000001FF
