:100000000C942A000C9434000C9434000C943400AA
:100010000C9434000C9434000C9434000C94340090
:100020000C9434000C9434000C9434000C94340080
:100030000C9434000C9434000C9434000C94340070
:100040000C9434000C9434000C9434000C94340060
:100050000C94340011241FBECFE5D8E0DEBFCDBF25
:100060000E9446000C945C000C9400003E9A379A63
:1000700086B1876086B9089597B1907F892B87B93B
:10008000369A3699FECF84B195B10895A09A0E9410
:10009000360080E00E943C00843F914058F4A89ACA
:1000A0008FEF91EE24E0815090402040E1F700C0B6
:0C00B0000000EFCFA898F4CFF894FFCF29
:00000001FF
