:100000000C942A000C943F000C943F000C943F0089
:100010000C943F000C943F000C943F000C943F0064
:100020000C943F000C943F000C943F000C943F0054
:100030000C943F000C943F000C943F000C943F0044
:100040000C943F000C943F000C943F000C943F0034
:100050000C943F0011241FBECFE5D8E0DEBFCDBF1A
:1000600010E0A0E6B0E0E8EFF0E002C005900D92ED
:10007000A436B107D9F70E946D000C947A000C9455
:1000800000008C9A82E28FBD89E18EBD8FE19EE4F3
:1000900097BD86BD089599BD88BD089520916200E1
:1000A000809160009091610035E02302800D911DE8
:1000B00011249093610080936000803D27E09207B7
:1000C00030F02FEF2093620099BD88BD0895893EDE
:1000D00033E09307C8F721E0F5CF8A980E944100EA
:1000E000829B0E944E0085EA9EE00197F1F700C0D6
:0800F0000000F6CFF894FFCFE9
:0400F800E803010018
:00000001FF
