:100000000C942A000C9434000C9434000C943400AA
:100010000C9434000C9434000C9434000C94340090
:100020000C9434000C9434000C9434000C94340080
:100030000C9434000C9434000C9434000C94340070
:100040000C9434000C9434000C9434000C94340060
:100050000C94340011241FBECFE5D8E0DEBFCDBF25
:100060000E947C000C9498000C940000BB9A83B70B
:10007000886483BF83B7806283BF83B7836083BF95
:100080001CBE08958D9A8FB580688FBD8FB5816035
:100090008FBD8EB588608EBD8EB583608EBD1BBC56
:1000A0001ABC08958CBF089590E09BBD8ABD089549
:1000B00080E487B986E886B9089587B1807F87B9DB
:1000C000369A3699FECF84B195B10895B89AB99A07
:1000D000BA9ABC9A889A899A8A9A8B9A0895C09AF1
:1000E000C198C29AC498909A9198929A93980895B8
:1000F0001CBE1BBC1ABC08950E9466000E943600FC
:100100000E9442000E9458008E9A14E6C4E6D0E095
:100110000E945D00843F914020F40E947800969AEE
:10012000F7CF96980E946F001CBFDBBDCABDF0CF11
:04013000F894FFCF71
:00000001FF
