:100000000C942A000C9434000C9434000C943400AA
:100010000C9434000C9434000C9434000C94340090
:100020000C9434000C9434000C9434000C94340080
:100030000C9434000C9434000C9434000C94340070
:100040000C9434000C9434000C9434000C94340060
:100050000C94340011241FBECFE5D8E0DEBFCDBF25
:100060000E9436000C9445000C94000087B38F600A
:1000700087BB81B38F6081BBC09AC198C29AC39875
:0E008000909A9198929A9398F7CFF894FFCFA8
:00000001FF
