:100000000C942A000C9447000C9447000C94470071
:100010000C9447000C9476000C9447000C94470015
:100020000C9447000C9447000C9447000C94470034
:100030000C9447000C9447000C9447000C94470024
:100040000C9447000C9447000C9447000C94470014
:100050000C94470011241FBECFE5D8E0DEBFCDBF12
:1000600010E0A0E6B0E0E2E6F2E002C005900D92FA
:10007000A636B107D9F720E0A6E6B0E001C01D9290
:10008000AB36B207E1F70E94FE000C942F010C94EE
:100090000000BB9A83B7886483BF83B7806283BF45
:1000A00083B7836083BF1CBE08958D9A8FB5806827
:1000B0008FBD8FB581608FBD8EB588608EBD8EB5CA
:1000C00083608EBD1BBC1ABC08958CBF089590E060
:1000D0009BBD8ABD08958C9A15BC85B5846085BD8D
:1000E00089B7806489BF14BC789408951F920F92D9
:1000F0000FB60F9211242F933F938F939F9386E017
:1001000084BD8091690090916A00019690936A0085
:1001100080936900209166002115E9F02091630029
:100120003091640036952795369527953695279515
:100130008217930738F094981092660010926A0024
:10014000109269009F918F913F912F910F900FBE58
:100150000F901F901895843C9940A0F3949A81E0E9
:1001600080936600EBCF90936400809363000895C2
:100170002091620080916000909161003AE023023A
:10018000800D911D11249093610080936000803D4B
:1001900027E0920740F02FEF2093620090936400D5
:1001A000809363000895893E33E09307B8F721E018
:1001B000F3CF3E9A379A86B1866086B9089587B1A3
:1001C000807F87B9369A3699FECF84B195B108956C
:1001D000B89AB99ABA9ABC9A889A899A8A9A8B9A42
:1001E0000895C09AC198C29AC498909A9198929A88
:1001F000939808951CBE1BBC1ABC08950E94E80089
:100200000E9449000E9455000E94D9000E946B0084
:1002100014EBC4EBD0E00E94DF00843F914088F4EF
:100220000E94FA000E94DF00843F9140A0F78FE710
:1002300098E321E0815090402040E1F700C00000A9
:10024000F1CF0E94F1001CBFDBBDCABD0E94B80007
:100250008FE39CE90197F1F700C00000DCCFF89430
:02026000FFCFCE
:06026200E80301DC0500C9
:00000001FF
