:100000000C942A000C943F000C943F000C943F0089
:100010000C943F000C943F000C943F000C943F0064
:100020000C943F000C943F000C943F000C943F0054
:100030000C943F000C943F000C943F000C943F0044
:100040000C943F000C943F000C943F000C943F0034
:100050000C943F0011241FBECFE5D8E0DEBFCDBF1A
:1000600010E0A0E6B0E0E8EBF1E002C005900D92F0
:10007000A436B107D9F70E94AC000C94DA000C94B6
:100080000000BB9A83B7886483BF83B7806283BF55
:1000900083B7836083BF1CBE08958F9A85B588643B
:1000A00085BD85B5806285BD85B5846085BD13BC81
:1000B00008958CBF089583BD08958C9A82E28FBD08
:1000C0008AE18EBD80E29EE497BD86BD089599BD0C
:1000D00088BD089520916200809160009091610038
:1000E00035E02302800D911D1124909361008093CF
:1000F0006000803D27E0920730F02FEF20936200F0
:1001000099BD88BD0895893E33E09307C8F721E083
:10011000F5CF80E487B986E886B9089587B1807FF6
:1001200087B9369A3699FECF84B195B10895B89AB9
:10013000B99ABA9ABC9A889A899A8A9A8B9A089597
:10014000C09AC198C29AC498909A9198929A93989A
:1001500008951CBE13BC08950E9497000E944100A0
:100160000E944D000E945D000E948900C4EB0E9425
:100170008E00843F914088F40E94A9000E948E0066
:10018000843F9140A0F78FE798E321E081509040B1
:100190002040E1F700C00000F1CF0E94A000CCBFDA
:1001A000C3BD0E946A008FE39CE90197F1F700C08C
:0801B0000000DDCFF894FFCF41
:0401B800E803010057
:00000001FF
