:100000000C942A000C9434000C9434000C943400AA
:100010000C9434000C9434000C9434000C94340090
:100020000C9434000C9434000C9434000C94340080
:100030000C9434000C9434000C9434000C94340070
:100040000C9434000C9434000C9434000C94340060
:100050000C94340011241FBECFE5D8E0DEBFCDBF25
:100060000E9493000C943A010C94000081B38063C9
:1000700081BB8FB582608FBD8EB588618EBD8FB517
:1000800080688FBD8FB580628FBD8EB582608EBD5A
:100090008FE39CE997BD86BD089587B38F6087BBCA
:1000A0000895DC01181619061CF4C09AC19807C0FF
:1000B000C098892BD9F3C19AB195A195B1092FE3C5
:1000C0003CE90E94020124E630E040E050E00E945A
:1000D000E3003BBD2ABD0895DC01181619061CF487
:1000E000C29AC39807C0C298892BD9F3C39AB19515
:1000F000A195B1092FE33CE90E94020124E630E01A
:1001000040E050E00E94E30039BD28BD0895CF9340
:10011000DF93D62FC72F0E9451008D2F9C2FDF9188
:10012000CF910C946C000E944D000E94360064E652
:1001300070E084E690E00E9487002FEF8BE792E961
:10014000215080409040E1F700C0000064E670E07C
:1001500080E090E00E9487002FEF87EA91E621502F
:1001600080409040E1F700C0000060E070E084E66D
:1001700090E00E9487002FEF87EA91E621508040AF
:100180009040E1F700C0000064E670E08CE99FEF6A
:100190000E9487002FEF87EA91E62150804090402F
:1001A000E1F700C0000060E070E080E090E00E94B5
:1001B00087002FEF87EA91E6215080409040E1F7D9
:1001C00000C00000B4CF052E97FB1EF400940E94DF
:1001D000FA0057FD07D00E94090107FC03D04EF436
:1001E0000C94FA0050954095309521953F4F4F4F14
:1001F0005F4F089590958095709561957F4F8F4FD3
:100200009F4F08950E942B01B7FF0895821B930B07
:100210000895A1E21A2EAA1BBB1BFD010DC0AA1F47
:10022000BB1FEE1FFF1FA217B307E407F50720F05F
:10023000A21BB30BE40BF50B661F771F881F991FDA
:100240001A9469F760957095809590959B01AC0123
:10025000BD01CF010895A29FB001B39FC001A39F2C
:10026000700D811D1124911DB29F700D811D1124EF
:08027000911D0895F894FFCFE1
:00000001FF
