:100000000C942A000C9434000C9434000C943400AA
:100010000C9434000C9434000C9434000C94340090
:100020000C9434000C9434000C9434000C94340080
:100030000C9434000C9434000C9434000C94340070
:100040000C9434000C9434000C9434000C94340060
:100050000C94340011241FBECFE5D8E0DEBFCDBF25
:100060000E9465000C94C4000C940000C098C19AD2
:10007000C29AC398909A91989298939A0895C09A28
:10008000C198C298C39A9098919A929A9398089519
:1000900088B3807F88BB82B3807F82BB089588B39A
:1000A0008C7F88BB9198909AC29AC39882B3837FC1
:1000B00082BB089588B3837F88BB939A9298C09837
:1000C000C19A82B38C7F82BB089587B38F6087BB50
:1000D00081B38F6081BB0E9436002FEF82E597E0ED
:1000E000215080409040E1F700C000000E9448008D
:1000F0002FEF83EC99E0215080409040E1F700C061
:1001000000000E943F002FEF83EC99E021508040D7
:100110009040E1F700C000000E9448002FEF81EE00
:1001200094E0215080409040E1F700C000000E9420
:100130004F002FEF80E792E0215080409040E1F7A0
:1001400000C000000E9448002FEF81EE94E0215093
:1001500080409040E1F700C000000E945A002FEF5D
:1001600080E792E0215080409040E1F700C000001D
:100170000E9448002FEF81EE94E021508040904093
:0C018000E1F700C00000A7CFF894FFCF0B
:00000001FF
