:100000000C942A000C9434000C9434000C943400AA
:100010000C9434000C9434000C9434000C94340090
:100020000C9434000C9434000C9434000C94340080
:100030000C9434000C9434000C9434000C94340070
:100040000C9434000C9434000C9434000C94340060
:100050000C94340011241FBECFE5D8E0DEBFCDBF25
:100060000E9461000C94C0000C94000088B3807F53
:1000700088BB82B3807F82BB0895C09AC198C29A20
:10008000C398909A9198929A93980895C098C19A1B
:10009000C298C39A9098919A9298939A0895C0980A
:1000A000C19890989198C29AC398929A93980895FB
:1000B000C298C39892989398C09AC198909A919830
:1000C000089587B38F6087BB81B38F6081BB0E9427
:1000D0003D002FEF8BE792E9215080409040E1F7FF
:1000E00000C000000E9436002FEF83ED90E3215006
:1000F00080409040E1F700C000000E9446002FEFD2
:100100008BE792E9215080409040E1F700C0000069
:100110000E9436002FEF83ED90E321508040904005
:10012000E1F700C000000E944F002FEF87EA91E640
:10013000215080409040E1F700C000000E9436004E
:100140002FEF83ED90E3215080409040E1F700C015
:1001500000000E9458002FEF87EA91E6215080406E
:100160009040E1F700C000000E9436002FEF87EAC0
:1001700091E6215080409040E1F700C00000A7CFF9
:04018000F894FFCF21
:00000001FF
