:100000000C942A000C9434000C9434000C943400AA
:100010000C9434000C9434000C9434000C94340090
:100020000C9434000C9434000C9434000C94340080
:100030000C9434000C9434000C9434000C94340070
:100040000C9434000C9434000C9434000C94340060
:100050000C94340011241FBECFE5D8E0DEBFCDBF25
:100060000E9465000C946E000C940000C098C19A28
:10007000909A9198C29AC3989298939A0895C09A28
:10008000C198909A9198C298C39A9298939A089519
:1000900088B3807F88BB82B3807F82BB089588B39A
:1000A0008C7F88BB82B38C7F82BBC29AC398929AA2
:1000B0009398089588B3837F88BB82B3837F82BB84
:1000C000C098C19A9098919A089587B38F6087BB22
:1000D00081B38F6081BB0E943600FDCFF894FFCFC3
:00000001FF
