:100000000C942A000C9434000C9434000C943400AA
:100010000C9434000C9434000C9434000C94340090
:100020000C9434000C9434000C9434000C94340080
:100030000C9434000C9434000C9434000C94340070
:100040000C9434000C9434000C9434000C94340060
:100050000C94340011241FBECFE5D8E0DEBFCDBF25
:100060000E9489000C94AC000C940000BB9A83B7EA
:10007000886483BF83B7806283BF83B7836083BF95
:100080001CBE08958D9A8FB580688FBD8FB5816035
:100090008FBD8EB588608EBD8EB583608EBD1BBC56
:1000A0001ABC08958CBF089590E09BBD8ABD089549
:1000B000B89AB99ABA9ABC9A889A899A8A9A8B9A63
:1000C0000895C09AC198C29AC498909A9198929AA9
:1000D00093980895C098C19AC298C49A9098919A9A
:1000E0009298939A08951CBE1BBC1ABC08950E9456
:1000F000610080E590E09BBD8ABD80EF8CBF0895D4
:100100000E94610080EF90E09BBD8ABD80E58CBFBE
:1001100008950E9458000E9436000E9442000CED93
:1001200010E0C4EB0E9461001BBD0ABDCCBF2FEFE5
:1001300082E597E0215080409040E1F700C0000048
:100140000E9473002FEF84E39CE021508040904098
:0C015000E1F700C00000E6CFF894FFCFFC
:00000001FF
