:100000000C942A000C9434000C9434000C943400AA
:100010000C9434000C9434000C9434000C94340090
:100020000C9434000C9434000C9434000C94340080
:100030000C9434000C9434000C9434000C94340070
:100040000C9434000C9434000C9434000C94340060
:100050000C94340011241FBECFE5D8E0DEBFCDBF25
:100060000E94A9000C94C8000C940000BB9A83B7AE
:10007000886483BF83B7806283BF83B7836083BF95
:100080001CBE0895B89AB99ABA9ABC9A0895C09AB3
:10009000C198C29AC4980895C098C19AC298C49A47
:1000A0000895C098C198C298C4981CBE08958CBF8A
:1000B00008950E94470088E28CBF2FEF30E792E05E
:1000C000215030409040E1F700C000008B5F813E3E
:1000D00099F72FEF3DE389E4215030408040E1F76C
:1000E00000C000008CED8CBF9FEF20E732E0915004
:1000F00020403040E1F700C000008550833299F77E
:1001000008950E944C0088E28CBF2FEF30E792E008
:10011000215030409040E1F700C000008B5F813EED
:1001200099F72FEF3DE389E4215030408040E1F71B
:1001300000C000008CED8CBF9FEF20E732E09150B3
:1001400020403040E1F700C000008550833299F72D
:1001500008950E9442000E9436000E9459000E94A9
:1001600051002FEF83ED90E3215080409040E1F764
:1001700000C000000E9481000E9451002FEF8DE31B
:1001800099E4215080409040E1F700C00000E5CFA5
:04019000F894FFCF11
:00000001FF
