:100000000C942A000C9434000C9434000C943400AA
:100010000C9434000C9434000C9434000C94340090
:100020000C9434000C9434000C9434000C94340080
:100030000C9434000C9434000C9434000C94340070
:100040000C9434000C9434000C9434000C94340060
:100050000C94340011241FBECFE5D8E0DEBFCDBF25
:100060000E94B5000C94F8000C940000BB9A83B772
:10007000886483BF83B7806283BF83B7836083BF95
:100080001CBE08958D9A8FB580688FBD8FB5816035
:100090008FBD8EB588608EBD8EB583608EBD1BBC56
:1000A0001ABC08958CBF089590E09BBD8ABD089549
:1000B0003E9A379A86B1866086B9089587B1807F67
:1000C00087B9369A3699FECF84B195B108950E94CA
:1000D0005E009C0181E0243F314008F080E00895FB
:1000E000A09AA1980895A89885E08A95F1F7000054
:1000F000A89A8AE18A95F1F700C0A89808950E940D
:100100007300999BFECF80E090E0999B09C0019617
:1001100022E02A95F1F700C0813325E79207A9F77D
:100120006AE370E00E94E400CB0108950E947F0022
:100130009C0181E02031310508F080E00895B89AF3
:10014000B99ABA9ABC9A889A899A8A9A8B9A089587
:10015000C09AC198C29AC498909A9198929A93988A
:1001600008951CBE1BBC1ABC08950E949F000E94EB
:1001700036000E9442000E9458000E94700014EB5A
:10018000C4EBD0E00E9467008115A1F00E94B1008D
:100190000E946700811104C00E949600811591F3AE
:1001A0002FE788E391E0215080409040E1F700C0C4
:1001B0000000EECF0E9496008111E8CF0E94A800B7
:1001C0001CBFDBBDCABDDECFAA1BBB1B51E107C0F4
:1001D000AA1FBB1FA617B70710F0A61BB70B881FD7
:1001E000991F5A95A9F780959095BC01CD01089566
:0401F000F894FFCFB1
:00000001FF
