:100000000C942A000C9434000C9434000C943400AA
:100010000C9434000C9434000C9434000C94340090
:100020000C9434000C9434000C9434000C94340080
:100030000C9434000C9434000C9434000C94340070
:100040000C9434000C9434000C9434000C94340060
:100050000C94340011241FBECFE5D8E0DEBFCDBF25
:100060000E9443000C946D000C9400008D9A82E86D
:100070008FBD8AE18EBD8FE39CE997BD86BD089553
:100080009BBD8ABD08950E94360040ED57E028EBE5
:100090003BE080EA9FE05BBD4ABD6FEF73EDE0E3BC
:1000A00061507040E040E1F700C000003BBD2ABD58
:1000B0006FEF73EDE0E361507040E040E1F700C0A6
:1000C00000009BBD8ABD6FEF73EDE0E361507040AF
:0E00D000E040E1F700C00000DECFF894FFCF63
:00000001FF
