:100000000C942A000C9434000C9434000C943400AA
:100010000C9434000C9434000C9434000C94340090
:100020000C9434000C9434000C9434000C94340080
:100030000C9434000C9434000C9434000C94340070
:100040000C9434000C9434000C9434000C94340060
:100050000C94340011241FBECFE5D8E0DEBFCDBF25
:100060000E9443000C9464000C9400008C9A82E27D
:100070008FBD89E18EBD8FE19EE497BD86BD089559
:1000800099BD88BD08950E94360088EE93E099BD21
:1000900088BDE5EAFEE03197F1F700C00000059663
:1000A000853DF7E09F0799F780ED97E099BD88BD02
:1000B000E5EAFEE03197F1F700C000000597833EC6
:0C00C000F3E09F0799F7E1CFF894FFCF21
:00000001FF
