:100000000C942A000C9434000C9434000C943400AA
:100010000C9434000C9434000C9434000C94340090
:100020000C9434000C9434000C9434000C94340080
:100030000C9434000C9434000C9434000C94340070
:100040000C9434000C9434000C9434000C94340060
:100050000C94340011241FBECFE5D8E0DEBFCDBF25
:100060000E944E000C9483000C9400008C9A8FB573
:1000700080628FBD8FB582608FBD8EB580618EBD71
:100080008EB588608EBD8EB582608EBD80E29EE4A6
:1000900097BD86BD089599BD88BD08950E9436001C
:1000A00048EE53E08CED95E020ED37E059BD48BDBA
:1000B0006FEF79E6E8E161507040E040E1F700C0A1
:1000C000000099BD88BD6FEF79E6E8E161507040AE
:1000D000E040E1F700C0000039BD28BD6FEF79E6D0
:1000E000E8E161507040E040E1F700C0000099BDD8
:1000F00088BD6FEF79E6E8E161507040E040E1F7DC
:0A01000000C00000D3CFF894FFCF39
:00000001FF
