:100000000C942A000C9434000C9434000C943400AA
:100010000C9434000C9434000C9434000C94340090
:100020000C9434000C9434000C9434000C94340080
:100030000C9434000C9434000C9434000C94340070
:100040000C9434000C9434000C9434000C94340060
:100050000C94340011241FBECFE5D8E0DEBFCDBF25
:100060000E945C000C9484000C940000A09AA1985B
:100070000895A89885E08A95F1F70000A89A8AE18A
:100080008A95F1F700C0A89808950E943900999BBD
:10009000FECF80E090E0999B09C0019622E02A956E
:1000A000F1F700C0813325E79207A9F76AE370E012
:1000B0000E947000CB0108950E943600D19A0E94E0
:1000C0004500409758F4D99A2FEF80E792E02150ED
:1000D00080409040E1F700C00000F1CFD998F4CF04
:1000E000AA1BBB1B51E107C0AA1FBB1FA617B7075E
:1000F00010F0A61BB70B881F991F5A95A9F780957A
:0C0100009095BC01CD010895F894FFCF4C
:00000001FF
